{
  "_format": "hh-sol-artifact-1",
  "contractName": "Domains",
  "sourceName": "contracts/Domains.sol",
  "abi": [
    {
      "inputs": [
        {
          "internalType": "string",
          "name": "_tld",
          "type": "string"
        }
      ],
      "stateMutability": "payable",
      "type": "constructor"
    },
    {
      "inputs": [],
      "name": "AlreadyRegistered",
      "type": "error"
    },
    {
      "inputs": [
        {
          "internalType": "string",
          "name": "name",
          "type": "string"
        }
      ],
      "name": "InvalidName",
      "type": "error"
    },
    {
      "inputs": [],
      "name": "Unauthorized",
      "type": "error"
    },
    {
      "anonymous": false,
      "inputs": [
        {
          "indexed": true,
          "internalType": "address",
          "name": "owner",
          "type": "address"
        },
        {
          "indexed": true,
          "internalType": "address",
          "name": "approved",
          "type": "address"
        },
        {
          "indexed": true,
          "internalType": "uint256",
          "name": "tokenId",
          "type": "uint256"
        }
      ],
      "name": "Approval",
      "type": "event"
    },
    {
      "anonymous": false,
      "inputs": [
        {
          "indexed": true,
          "internalType": "address",
          "name": "owner",
          "type": "address"
        },
        {
          "indexed": true,
          "internalType": "address",
          "name": "operator",
          "type": "address"
        },
        {
          "indexed": false,
          "internalType": "bool",
          "name": "approved",
          "type": "bool"
        }
      ],
      "name": "ApprovalForAll",
      "type": "event"
    },
    {
      "anonymous": false,
      "inputs": [
        {
          "indexed": true,
          "internalType": "address",
          "name": "from",
          "type": "address"
        },
        {
          "indexed": true,
          "internalType": "address",
          "name": "to",
          "type": "address"
        },
        {
          "indexed": true,
          "internalType": "uint256",
          "name": "tokenId",
          "type": "uint256"
        }
      ],
      "name": "Transfer",
      "type": "event"
    },
    {
      "inputs": [
        {
          "internalType": "address",
          "name": "to",
          "type": "address"
        },
        {
          "internalType": "uint256",
          "name": "tokenId",
          "type": "uint256"
        }
      ],
      "name": "approve",
      "outputs": [],
      "stateMutability": "nonpayable",
      "type": "function"
    },
    {
      "inputs": [
        {
          "internalType": "address",
          "name": "owner",
          "type": "address"
        }
      ],
      "name": "balanceOf",
      "outputs": [
        {
          "internalType": "uint256",
          "name": "",
          "type": "uint256"
        }
      ],
      "stateMutability": "view",
      "type": "function"
    },
    {
      "inputs": [
        {
          "internalType": "string",
          "name": "",
          "type": "string"
        }
      ],
      "name": "domains",
      "outputs": [
        {
          "internalType": "address",
          "name": "",
          "type": "address"
        }
      ],
      "stateMutability": "view",
      "type": "function"
    },
    {
      "inputs": [],
      "name": "getAllNames",
      "outputs": [
        {
          "internalType": "string[]",
          "name": "",
          "type": "string[]"
        }
      ],
      "stateMutability": "view",
      "type": "function"
    },
    {
      "inputs": [
        {
          "internalType": "uint256",
          "name": "tokenId",
          "type": "uint256"
        }
      ],
      "name": "getApproved",
      "outputs": [
        {
          "internalType": "address",
          "name": "",
          "type": "address"
        }
      ],
      "stateMutability": "view",
      "type": "function"
    },
    {
      "inputs": [
        {
          "internalType": "string",
          "name": "name",
          "type": "string"
        }
      ],
      "name": "getDomainOwner",
      "outputs": [
        {
          "internalType": "address",
          "name": "",
          "type": "address"
        }
      ],
      "stateMutability": "view",
      "type": "function"
    },
    {
      "inputs": [
        {
          "internalType": "string",
          "name": "name",
          "type": "string"
        }
      ],
      "name": "getRecord",
      "outputs": [
        {
          "internalType": "string",
          "name": "",
          "type": "string"
        }
      ],
      "stateMutability": "view",
      "type": "function"
    },
    {
      "inputs": [
        {
          "internalType": "address",
          "name": "owner",
          "type": "address"
        },
        {
          "internalType": "address",
          "name": "operator",
          "type": "address"
        }
      ],
      "name": "isApprovedForAll",
      "outputs": [
        {
          "internalType": "bool",
          "name": "",
          "type": "bool"
        }
      ],
      "stateMutability": "view",
      "type": "function"
    },
    {
      "inputs": [],
      "name": "isOwner",
      "outputs": [
        {
          "internalType": "bool",
          "name": "",
          "type": "bool"
        }
      ],
      "stateMutability": "view",
      "type": "function"
    },
    {
      "inputs": [],
      "name": "name",
      "outputs": [
        {
          "internalType": "string",
          "name": "",
          "type": "string"
        }
      ],
      "stateMutability": "view",
      "type": "function"
    },
    {
      "inputs": [
        {
          "internalType": "uint256",
          "name": "",
          "type": "uint256"
        }
      ],
      "name": "names",
      "outputs": [
        {
          "internalType": "string",
          "name": "",
          "type": "string"
        }
      ],
      "stateMutability": "view",
      "type": "function"
    },
    {
      "inputs": [],
      "name": "owner",
      "outputs": [
        {
          "internalType": "address payable",
          "name": "",
          "type": "address"
        }
      ],
      "stateMutability": "view",
      "type": "function"
    },
    {
      "inputs": [
        {
          "internalType": "uint256",
          "name": "tokenId",
          "type": "uint256"
        }
      ],
      "name": "ownerOf",
      "outputs": [
        {
          "internalType": "address",
          "name": "",
          "type": "address"
        }
      ],
      "stateMutability": "view",
      "type": "function"
    },
    {
      "inputs": [
        {
          "internalType": "string",
          "name": "name",
          "type": "string"
        }
      ],
      "name": "price",
      "outputs": [
        {
          "internalType": "uint256",
          "name": "",
          "type": "uint256"
        }
      ],
      "stateMutability": "pure",
      "type": "function"
    },
    {
      "inputs": [
        {
          "internalType": "string",
          "name": "",
          "type": "string"
        }
      ],
      "name": "records",
      "outputs": [
        {
          "internalType": "string",
          "name": "",
          "type": "string"
        }
      ],
      "stateMutability": "view",
      "type": "function"
    },
    {
      "inputs": [
        {
          "internalType": "string",
          "name": "name",
          "type": "string"
        }
      ],
      "name": "register",
      "outputs": [],
      "stateMutability": "payable",
      "type": "function"
    },
    {
      "inputs": [
        {
          "internalType": "address",
          "name": "from",
          "type": "address"
        },
        {
          "internalType": "address",
          "name": "to",
          "type": "address"
        },
        {
          "internalType": "uint256",
          "name": "tokenId",
          "type": "uint256"
        }
      ],
      "name": "safeTransferFrom",
      "outputs": [],
      "stateMutability": "nonpayable",
      "type": "function"
    },
    {
      "inputs": [
        {
          "internalType": "address",
          "name": "from",
          "type": "address"
        },
        {
          "internalType": "address",
          "name": "to",
          "type": "address"
        },
        {
          "internalType": "uint256",
          "name": "tokenId",
          "type": "uint256"
        },
        {
          "internalType": "bytes",
          "name": "_data",
          "type": "bytes"
        }
      ],
      "name": "safeTransferFrom",
      "outputs": [],
      "stateMutability": "nonpayable",
      "type": "function"
    },
    {
      "inputs": [
        {
          "internalType": "address",
          "name": "operator",
          "type": "address"
        },
        {
          "internalType": "bool",
          "name": "approved",
          "type": "bool"
        }
      ],
      "name": "setApprovalForAll",
      "outputs": [],
      "stateMutability": "nonpayable",
      "type": "function"
    },
    {
      "inputs": [
        {
          "internalType": "string",
          "name": "name",
          "type": "string"
        },
        {
          "internalType": "string",
          "name": "record",
          "type": "string"
        }
      ],
      "name": "setRecord",
      "outputs": [],
      "stateMutability": "nonpayable",
      "type": "function"
    },
    {
      "inputs": [
        {
          "internalType": "bytes4",
          "name": "interfaceId",
          "type": "bytes4"
        }
      ],
      "name": "supportsInterface",
      "outputs": [
        {
          "internalType": "bool",
          "name": "",
          "type": "bool"
        }
      ],
      "stateMutability": "view",
      "type": "function"
    },
    {
      "inputs": [],
      "name": "symbol",
      "outputs": [
        {
          "internalType": "string",
          "name": "",
          "type": "string"
        }
      ],
      "stateMutability": "view",
      "type": "function"
    },
    {
      "inputs": [],
      "name": "tld",
      "outputs": [
        {
          "internalType": "string",
          "name": "",
          "type": "string"
        }
      ],
      "stateMutability": "view",
      "type": "function"
    },
    {
      "inputs": [
        {
          "internalType": "uint256",
          "name": "tokenId",
          "type": "uint256"
        }
      ],
      "name": "tokenURI",
      "outputs": [
        {
          "internalType": "string",
          "name": "",
          "type": "string"
        }
      ],
      "stateMutability": "view",
      "type": "function"
    },
    {
      "inputs": [
        {
          "internalType": "address",
          "name": "from",
          "type": "address"
        },
        {
          "internalType": "address",
          "name": "to",
          "type": "address"
        },
        {
          "internalType": "uint256",
          "name": "tokenId",
          "type": "uint256"
        }
      ],
      "name": "transferFrom",
      "outputs": [],
      "stateMutability": "nonpayable",
      "type": "function"
    },
    {
      "inputs": [
        {
          "internalType": "string",
          "name": "name",
          "type": "string"
        }
      ],
      "name": "valid",
      "outputs": [
        {
          "internalType": "bool",
          "name": "",
          "type": "bool"
        }
      ],
      "stateMutability": "pure",
      "type": "function"
    },
    {
      "inputs": [],
      "name": "withdraw",
      "outputs": [],
      "stateMutability": "nonpayable",
      "type": "function"
    }
  ],
  "bytecode": "0x6080604052604051806108a0016040528061086d81526020016200568261086d9139600a90805190602001906200003892919062000287565b506040518060400160405280600d81526020017f3c2f746578743e3c2f7376673e00000000000000000000000000000000000000815250600b90805190602001906200008692919062000287565b5060405162005eef38038062005eef8339818101604052810190620000ac9190620004d4565b6040518060400160405280601181526020017f486f646c204e616d6520536572766963650000000000000000000000000000008152506040518060400160405280600381526020017f484e53000000000000000000000000000000000000000000000000000000000081525081600090805190602001906200013092919062000287565b5080600190805190602001906200014992919062000287565b50505080600890805190602001906200016492919062000287565b50620001b16040518060400160405280601881526020017f2573206e616d652073657276696365206465706c6f796564000000000000000081525082620001b860201b62001ccf1760201c565b5062000622565b6200025a8282604051602401620001d192919062000582565b6040516020818303038152906040527f4b5c4277000000000000000000000000000000000000000000000000000000007bffffffffffffffffffffffffffffffffffffffffffffffffffffffff19166020820180517bffffffffffffffffffffffffffffffffffffffffffffffffffffffff83818316178352505050506200025e60201b60201c565b5050565b60008151905060006a636f6e736f6c652e6c6f679050602083016000808483855afa5050505050565b8280546200029590620005ec565b90600052602060002090601f016020900481019282620002b9576000855562000305565b82601f10620002d457805160ff191683800117855562000305565b8280016001018555821562000305579182015b8281111562000304578251825591602001919060010190620002e7565b5b50905062000314919062000318565b5090565b5b808211156200033357600081600090555060010162000319565b5090565b6000604051905090565b600080fd5b600080fd5b600080fd5b600080fd5b6000601f19601f8301169050919050565b7f4e487b7100000000000000000000000000000000000000000000000000000000600052604160045260246000fd5b620003a08262000355565b810181811067ffffffffffffffff82111715620003c257620003c162000366565b5b80604052505050565b6000620003d762000337565b9050620003e5828262000395565b919050565b600067ffffffffffffffff82111562000408576200040762000366565b5b620004138262000355565b9050602081019050919050565b60005b838110156200044057808201518184015260208101905062000423565b8381111562000450576000848401525b50505050565b60006200046d6200046784620003ea565b620003cb565b9050828152602081018484840111156200048c576200048b62000350565b5b6200049984828562000420565b509392505050565b600082601f830112620004b957620004b86200034b565b5b8151620004cb84826020860162000456565b91505092915050565b600060208284031215620004ed57620004ec62000341565b5b600082015167ffffffffffffffff8111156200050e576200050d62000346565b5b6200051c84828501620004a1565b91505092915050565b600081519050919050565b600082825260208201905092915050565b60006200054e8262000525565b6200055a818562000530565b93506200056c81856020860162000420565b620005778162000355565b840191505092915050565b600060408201905081810360008301526200059e818562000541565b90508181036020830152620005b4818462000541565b90509392505050565b7f4e487b7100000000000000000000000000000000000000000000000000000000600052602260045260246000fd5b600060028204905060018216806200060557607f821691505b602082108114156200061c576200061b620005bd565b5b50919050565b61505080620006326000396000f3fe60806040526004361061019c5760003560e01c80636352211e116100ec578063b88d4fde1161008a578063e985e9c511610064578063e985e9c514610624578063f2c298be14610661578063fb825e5f1461067d578063fe2c6198146106a85761019c565b8063b88d4fde14610595578063c1880a98146105be578063c87b56dd146105e75761019c565b80638f32d59b116100c65780638f32d59b146104d957806395d89b41146105045780639791c0971461052f578063a22cb4651461056c5761019c565b80636352211e1461043457806370a08231146104715780638da5cb5b146104ae5761019c565b806325970115116101595780633ccfd60b116101335780633ccfd60b1461037a57806342842e0e146103915780634622ab03146103ba578063541e771d146103f75761019c565b806325970115146102d557806326449235146103125780632d5514321461034f5761019c565b806301ffc9a7146101a157806306fdde03146101de578063081812fc14610209578063095ea7b31461024657806311dd88451461026f57806323b872dd146102ac575b600080fd5b3480156101ad57600080fd5b506101c860048036038101906101c39190613253565b6106e5565b6040516101d5919061329b565b60405180910390f35b3480156101ea57600080fd5b506101f36107c7565b604051610200919061334f565b60405180910390f35b34801561021557600080fd5b50610230600480360381019061022b91906133a7565b610859565b60405161023d9190613415565b60405180910390f35b34801561025257600080fd5b5061026d6004803603810190610268919061345c565b6108de565b005b34801561027b57600080fd5b5061029660048036038101906102919190613501565b6109f6565b6040516102a3919061334f565b60405180910390f35b3480156102b857600080fd5b506102d360048036038101906102ce919061354e565b610aa9565b005b3480156102e157600080fd5b506102fc60048036038101906102f79190613501565b610b09565b6040516103099190613415565b60405180910390f35b34801561031e57600080fd5b50610339600480360381019061033491906136d1565b610b54565b6040516103469190613415565b60405180910390f35b34801561035b57600080fd5b50610364610b9d565b604051610371919061334f565b60405180910390f35b34801561038657600080fd5b5061038f610c2b565b005b34801561039d57600080fd5b506103b860048036038101906103b3919061354e565b610cf1565b005b3480156103c657600080fd5b506103e160048036038101906103dc91906133a7565b610d11565b6040516103ee919061334f565b60405180910390f35b34801561040357600080fd5b5061041e600480360381019061041991906136d1565b610db1565b60405161042b919061334f565b60405180910390f35b34801561044057600080fd5b5061045b600480360381019061045691906133a7565b610e67565b6040516104689190613415565b60405180910390f35b34801561047d57600080fd5b506104986004803603810190610493919061371a565b610f19565b6040516104a59190613756565b60405180910390f35b3480156104ba57600080fd5b506104c3610fd1565b6040516104d09190613792565b60405180910390f35b3480156104e557600080fd5b506104ee610ff7565b6040516104fb919061329b565b60405180910390f35b34801561051057600080fd5b5061051961104f565b604051610526919061334f565b60405180910390f35b34801561053b57600080fd5b5061055660048036038101906105519190613501565b6110e1565b604051610563919061329b565b60405180910390f35b34801561057857600080fd5b50610593600480360381019061058e91906137d9565b611195565b005b3480156105a157600080fd5b506105bc60048036038101906105b791906138ba565b6111ab565b005b3480156105ca57600080fd5b506105e560048036038101906105e0919061393d565b61120d565b005b3480156105f357600080fd5b5061060e600480360381019061060991906133a7565b6112f1565b60405161061b919061334f565b60405180910390f35b34801561063057600080fd5b5061064b600480360381019061064691906139be565b611443565b604051610658919061329b565b60405180910390f35b61067b60048036038101906106769190613501565b6114d7565b005b34801561068957600080fd5b50610692611a6b565b60405161069f9190613b0a565b60405180910390f35b3480156106b457600080fd5b506106cf60048036038101906106ca9190613501565b611c2c565b6040516106dc9190613756565b60405180910390f35b60007f80ac58cd000000000000000000000000000000000000000000000000000000007bffffffffffffffffffffffffffffffffffffffffffffffffffffffff1916827bffffffffffffffffffffffffffffffffffffffffffffffffffffffff191614806107b057507f5b5e139f000000000000000000000000000000000000000000000000000000007bffffffffffffffffffffffffffffffffffffffffffffffffffffffff1916827bffffffffffffffffffffffffffffffffffffffffffffffffffffffff1916145b806107c057506107bf82611d6b565b5b9050919050565b6060600080546107d690613b5b565b80601f016020809104026020016040519081016040528092919081815260200182805461080290613b5b565b801561084f5780601f106108245761010080835404028352916020019161084f565b820191906000526020600020905b81548152906001019060200180831161083257829003601f168201915b5050505050905090565b600061086482611dd5565b6108a3576040517f08c379a000000000000000000000000000000000000000000000000000000000815260040161089a90613bff565b60405180910390fd5b6004600083815260200190815260200160002060009054906101000a900473ffffffffffffffffffffffffffffffffffffffff169050919050565b60006108e982610e67565b90508073ffffffffffffffffffffffffffffffffffffffff168373ffffffffffffffffffffffffffffffffffffffff16141561095a576040517f08c379a000000000000000000000000000000000000000000000000000000000815260040161095190613c91565b60405180910390fd5b8073ffffffffffffffffffffffffffffffffffffffff16610979611e41565b73ffffffffffffffffffffffffffffffffffffffff1614806109a857506109a7816109a2611e41565b611443565b5b6109e7576040517f08c379a00000000000000000000000000000000000000000000000000000000081526004016109de90613d23565b60405180910390fd5b6109f18383611e49565b505050565b6060600e8383604051610a0a929190613d73565b90815260200160405180910390208054610a2390613b5b565b80601f0160208091040260200160405190810160405280929190818152602001828054610a4f90613b5b565b8015610a9c5780601f10610a7157610100808354040283529160200191610a9c565b820191906000526020600020905b815481529060010190602001808311610a7f57829003601f168201915b5050505050905092915050565b610aba610ab4611e41565b82611f02565b610af9576040517f08c379a0000000000000000000000000000000000000000000000000000000008152600401610af090613dfe565b60405180910390fd5b610b04838383611fe0565b505050565b6000600d8383604051610b1d929190613d73565b908152602001604051809103902060009054906101000a900473ffffffffffffffffffffffffffffffffffffffff16905092915050565b600d818051602081018201805184825260208301602085012081835280955050505050506000915054906101000a900473ffffffffffffffffffffffffffffffffffffffff1681565b60088054610baa90613b5b565b80601f0160208091040260200160405190810160405280929190818152602001828054610bd690613b5b565b8015610c235780601f10610bf857610100808354040283529160200191610c23565b820191906000526020600020905b815481529060010190602001808311610c0657829003601f168201915b505050505081565b610c33610ff7565b610c3c57600080fd5b600047905060003373ffffffffffffffffffffffffffffffffffffffff1682604051610c6790613e4f565b60006040518083038185875af1925050503d8060008114610ca4576040519150601f19603f3d011682016040523d82523d6000602084013e610ca9565b606091505b5050905080610ced576040517f08c379a0000000000000000000000000000000000000000000000000000000008152600401610ce490613eb0565b60405180910390fd5b5050565b610d0c838383604051806020016040528060008152506111ab565b505050565b600c6020528060005260406000206000915090508054610d3090613b5b565b80601f0160208091040260200160405190810160405280929190818152602001828054610d5c90613b5b565b8015610da95780601f10610d7e57610100808354040283529160200191610da9565b820191906000526020600020905b815481529060010190602001808311610d8c57829003601f168201915b505050505081565b600e818051602081018201805184825260208301602085012081835280955050505050506000915090508054610de690613b5b565b80601f0160208091040260200160405190810160405280929190818152602001828054610e1290613b5b565b8015610e5f5780601f10610e3457610100808354040283529160200191610e5f565b820191906000526020600020905b815481529060010190602001808311610e4257829003601f168201915b505050505081565b6000806002600084815260200190815260200160002060009054906101000a900473ffffffffffffffffffffffffffffffffffffffff169050600073ffffffffffffffffffffffffffffffffffffffff168173ffffffffffffffffffffffffffffffffffffffff161415610f10576040517f08c379a0000000000000000000000000000000000000000000000000000000008152600401610f0790613f42565b60405180910390fd5b80915050919050565b60008073ffffffffffffffffffffffffffffffffffffffff168273ffffffffffffffffffffffffffffffffffffffff161415610f8a576040517f08c379a0000000000000000000000000000000000000000000000000000000008152600401610f8190613fd4565b60405180910390fd5b600360008373ffffffffffffffffffffffffffffffffffffffff1673ffffffffffffffffffffffffffffffffffffffff168152602001908152602001600020549050919050565b600960009054906101000a900473ffffffffffffffffffffffffffffffffffffffff1681565b6000600960009054906101000a900473ffffffffffffffffffffffffffffffffffffffff1673ffffffffffffffffffffffffffffffffffffffff163373ffffffffffffffffffffffffffffffffffffffff1614905090565b60606001805461105e90613b5b565b80601f016020809104026020016040519081016040528092919081815260200182805461108a90613b5b565b80156110d75780601f106110ac576101008083540402835291602001916110d7565b820191906000526020600020905b8154815290600101906020018083116110ba57829003601f168201915b5050505050905090565b6000600361113284848080601f016020809104026020016040519081016040528093929190818152602001838380828437600081840152601f19601f82011690508083019250505050505050612247565b1015801561118d5750600a61118a84848080601f016020809104026020016040519081016040528093929190818152602001838380828437600081840152601f19601f82011690508083019250505050505050612247565b11155b905092915050565b6111a76111a0611e41565b83836123fc565b5050565b6111bc6111b6611e41565b83611f02565b6111fb576040517f08c379a00000000000000000000000000000000000000000000000000000000081526004016111f290613dfe565b60405180910390fd5b61120784848484612569565b50505050565b3373ffffffffffffffffffffffffffffffffffffffff16600d8585604051611236929190613d73565b908152602001604051809103902060009054906101000a900473ffffffffffffffffffffffffffffffffffffffff1673ffffffffffffffffffffffffffffffffffffffff16146112bb576040517f08c379a00000000000000000000000000000000000000000000000000000000081526004016112b290614040565b60405180910390fd5b8181600e86866040516112cf929190613d73565b908152602001604051809103902091906112ea9291906130be565b5050505050565b60606112fc82611dd5565b61133b576040517f08c379a0000000000000000000000000000000000000000000000000000000008152600401611332906140d2565b60405180910390fd5b600060066000848152602001908152602001600020805461135b90613b5b565b80601f016020809104026020016040519081016040528092919081815260200182805461138790613b5b565b80156113d45780601f106113a9576101008083540402835291602001916113d4565b820191906000526020600020905b8154815290600101906020018083116113b757829003601f168201915b5050505050905060006113e56125c5565b90506000815114156113fb57819250505061143e565b600082511115611430578082604051602001611418929190614123565b6040516020818303038152906040529250505061143e565b611439846125dc565b925050505b919050565b6000600560008473ffffffffffffffffffffffffffffffffffffffff1673ffffffffffffffffffffffffffffffffffffffff16815260200190815260200160002060008373ffffffffffffffffffffffffffffffffffffffff1673ffffffffffffffffffffffffffffffffffffffff16815260200190815260200160002060009054906101000a900460ff16905092915050565b600073ffffffffffffffffffffffffffffffffffffffff16600d8383604051611501929190613d73565b908152602001604051809103902060009054906101000a900473ffffffffffffffffffffffffffffffffffffffff1673ffffffffffffffffffffffffffffffffffffffff1614611586576040517f08c379a000000000000000000000000000000000000000000000000000000000815260040161157d906141b9565b60405180910390fd5b600073ffffffffffffffffffffffffffffffffffffffff16600d83836040516115b0929190613d73565b908152602001604051809103902060009054906101000a900473ffffffffffffffffffffffffffffffffffffffff1673ffffffffffffffffffffffffffffffffffffffff161461162c576040517f3a81d6fc00000000000000000000000000000000000000000000000000000000815260040160405180910390fd5b61163682826110e1565b6116795781816040517f7f19f48d000000000000000000000000000000000000000000000000000000008152600401611670929190614206565b60405180910390fd5b60006116858383611c2c565b9050803410156116ca576040517f08c379a00000000000000000000000000000000000000000000000000000000081526004016116c190614276565b60405180910390fd5b6000838360086040516020016116e293929190614376565b60405160208183030381529060405290506000600a82600b60405160200161170c939291906143a7565b604051602081830303815290604052905060006117296007612683565b9050600061177a87878080601f016020809104026020016040519081016040528093929190818152602001838380828437600081840152601f19601f82011690508083019250505050505050612247565b9050600061178782612691565b905061187b604051806060016040528060318152602001614f4d6031913989898080601f016020809104026020016040519081016040528093929190818152602001838380828437600081840152601f19601f82011690508083019250505050505050600880546117f790613b5b565b80601f016020809104026020016040519081016040528092919081815260200182805461182390613b5b565b80156118705780601f1061184557610100808354040283529160200191611870565b820191906000526020600020905b81548152906001019060200180831161185357829003601f168201915b5050505050866127f2565b60006118b18661188a87612894565b8460405160200161189d93929190614554565b604051602081830303815290604052612894565b90506000816040516020016118c691906145fd565b60405160208183030381529060405290506118f8604051806060016040528060398152602001614f1460399139612a2c565b6119376040518060400160405280600e81526020017f46696e616c20746f6b656e55524900000000000000000000000000000000000081525082611ccf565b611958604051806060016040528060398152602001614f7e60399139612a2c565b6119623386612ac5565b61196c8582612ae3565b8989600c6000888152602001908152602001600020919061198e9291906130be565b506119996007612b57565b33600d8b8b6040516119ac929190613d73565b908152602001604051809103902060006101000a81548173ffffffffffffffffffffffffffffffffffffffff021916908373ffffffffffffffffffffffffffffffffffffffff160217905550611a5f604051806060016040528060248152602001614ff760249139338c8c8080601f016020809104026020016040519081016040528093929190818152602001838380828437600081840152601f19601f82011690508083019250505050505050612b6d565b50505050505050505050565b6060611a8e6040518060600160405280602a8152602001614eea602a9139612a2c565b6000611a9a6007612683565b67ffffffffffffffff811115611ab357611ab26135a6565b5b604051908082528060200260200182016040528015611ae657816020015b6060815260200190600190039081611ad15790505b50905060005b611af66007612683565b811015611c2457600c60008281526020019081526020016000208054611b1b90613b5b565b80601f0160208091040260200160405190810160405280929190818152602001828054611b4790613b5b565b8015611b945780601f10611b6957610100808354040283529160200191611b94565b820191906000526020600020905b815481529060010190602001808311611b7757829003601f168201915b5050505050828281518110611bac57611bab61461f565b5b6020026020010181905250611c116040518060400160405280601781526020017f4e616d6520666f7220746f6b656e20256420697320257300000000000000000081525082848481518110611c0457611c0361461f565b5b6020026020010151612c0c565b8080611c1c9061467d565b915050611aec565b508091505090565b600080611c7c84848080601f016020809104026020016040519081016040528093929190818152602001838380828437600081840152601f19601f82011690508083019250505050505050612247565b905060008111611c8b57600080fd5b6003811415611ca45766b1a2bc2ec50000915050611cc9565b6004811415611cbd57666a94d74f430000915050611cc9565b662386f26fc100009150505b92915050565b611d678282604051602401611ce59291906146c6565b6040516020818303038152906040527f4b5c4277000000000000000000000000000000000000000000000000000000007bffffffffffffffffffffffffffffffffffffffffffffffffffffffff19166020820180517bffffffffffffffffffffffffffffffffffffffffffffffffffffffff8381831617835250505050612cab565b5050565b60007f01ffc9a7000000000000000000000000000000000000000000000000000000007bffffffffffffffffffffffffffffffffffffffffffffffffffffffff1916827bffffffffffffffffffffffffffffffffffffffffffffffffffffffff1916149050919050565b60008073ffffffffffffffffffffffffffffffffffffffff166002600084815260200190815260200160002060009054906101000a900473ffffffffffffffffffffffffffffffffffffffff1673ffffffffffffffffffffffffffffffffffffffff1614159050919050565b600033905090565b816004600083815260200190815260200160002060006101000a81548173ffffffffffffffffffffffffffffffffffffffff021916908373ffffffffffffffffffffffffffffffffffffffff160217905550808273ffffffffffffffffffffffffffffffffffffffff16611ebc83610e67565b73ffffffffffffffffffffffffffffffffffffffff167f8c5be1e5ebec7d5bd14f71427d1e84f3dd0314c0f7b2291e5b200ac8c7c3b92560405160405180910390a45050565b6000611f0d82611dd5565b611f4c576040517f08c379a0000000000000000000000000000000000000000000000000000000008152600401611f439061476f565b60405180910390fd5b6000611f5783610e67565b90508073ffffffffffffffffffffffffffffffffffffffff168473ffffffffffffffffffffffffffffffffffffffff161480611f995750611f988185611443565b5b80611fd757508373ffffffffffffffffffffffffffffffffffffffff16611fbf84610859565b73ffffffffffffffffffffffffffffffffffffffff16145b91505092915050565b8273ffffffffffffffffffffffffffffffffffffffff1661200082610e67565b73ffffffffffffffffffffffffffffffffffffffff1614612056576040517f08c379a000000000000000000000000000000000000000000000000000000000815260040161204d90614801565b60405180910390fd5b600073ffffffffffffffffffffffffffffffffffffffff168273ffffffffffffffffffffffffffffffffffffffff1614156120c6576040517f08c379a00000000000000000000000000000000000000000000000000000000081526004016120bd90614893565b60405180910390fd5b6120d1838383612cd4565b6120dc600082611e49565b6001600360008573ffffffffffffffffffffffffffffffffffffffff1673ffffffffffffffffffffffffffffffffffffffff168152602001908152602001600020600082825461212c91906148b3565b925050819055506001600360008473ffffffffffffffffffffffffffffffffffffffff1673ffffffffffffffffffffffffffffffffffffffff168152602001908152602001600020600082825461218391906148e7565b92505081905550816002600083815260200190815260200160002060006101000a81548173ffffffffffffffffffffffffffffffffffffffff021916908373ffffffffffffffffffffffffffffffffffffffff160217905550808273ffffffffffffffffffffffffffffffffffffffff168473ffffffffffffffffffffffffffffffffffffffff167fddf252ad1be2c89b69c2b068fc378daa952ba7f163c4a11628f55a4df523b3ef60405160405180910390a4612242838383612cd9565b505050565b60008060008084519050600092505b808210156123f15760008583815181106122735761227261461f565b5b602001015160f81c60f81b9050608060f81b817effffffffffffffffffffffffffffffffffffffffffffffffffffffffffffff191610156122c2576001836122bb91906148e7565b92506123dd565b60e060f81b817effffffffffffffffffffffffffffffffffffffffffffffffffffffffffffff19161015612304576002836122fd91906148e7565b92506123dc565b60f060f81b817effffffffffffffffffffffffffffffffffffffffffffffffffffffffffffff191610156123465760038361233f91906148e7565b92506123db565b60f8801b817effffffffffffffffffffffffffffffffffffffffffffffffffffffffffffff191610156123875760048361238091906148e7565b92506123da565b60fc60f81b817effffffffffffffffffffffffffffffffffffffffffffffffffffffffffffff191610156123c9576005836123c291906148e7565b92506123d9565b6006836123d691906148e7565b92505b5b5b5b5b5082806123e99061467d565b935050612256565b829350505050919050565b8173ffffffffffffffffffffffffffffffffffffffff168373ffffffffffffffffffffffffffffffffffffffff16141561246b576040517f08c379a000000000000000000000000000000000000000000000000000000000815260040161246290614989565b60405180910390fd5b80600560008573ffffffffffffffffffffffffffffffffffffffff1673ffffffffffffffffffffffffffffffffffffffff16815260200190815260200160002060008473ffffffffffffffffffffffffffffffffffffffff1673ffffffffffffffffffffffffffffffffffffffff16815260200190815260200160002060006101000a81548160ff0219169083151502179055508173ffffffffffffffffffffffffffffffffffffffff168373ffffffffffffffffffffffffffffffffffffffff167f17307eab39ab6107e8899845ad3d59bd9653f200f220920489ca2b5937696c318360405161255c919061329b565b60405180910390a3505050565b612574848484611fe0565b61258084848484612cde565b6125bf576040517f08c379a00000000000000000000000000000000000000000000000000000000081526004016125b690614a1b565b60405180910390fd5b50505050565b606060405180602001604052806000815250905090565b60606125e782611dd5565b612626576040517f08c379a000000000000000000000000000000000000000000000000000000000815260040161261d90614aad565b60405180910390fd5b60006126306125c5565b90506000815111612650576040518060200160405280600081525061267b565b8061265a84612691565b60405160200161266b929190614123565b6040516020818303038152906040525b915050919050565b600081600001549050919050565b606060008214156126d9576040518060400160405280600181526020017f300000000000000000000000000000000000000000000000000000000000000081525090506127ed565b600082905060005b6000821461270b5780806126f49061467d565b915050600a826127049190614afc565b91506126e1565b60008167ffffffffffffffff811115612727576127266135a6565b5b6040519080825280601f01601f1916602001820160405280156127595781602001600182028036833780820191505090505b5090505b600085146127e65760018261277291906148b3565b9150600a856127819190614b2d565b603061278d91906148e7565b60f81b8183815181106127a3576127a261461f565b5b60200101907effffffffffffffffffffffffffffffffffffffffffffffffffffffffffffff1916908160001a905350600a856127df9190614afc565b945061275d565b8093505050505b919050565b61288e8484848460405160240161280c9493929190614b5e565b6040516020818303038152906040527f9fd009f5000000000000000000000000000000000000000000000000000000007bffffffffffffffffffffffffffffffffffffffffffffffffffffffff19166020820180517bffffffffffffffffffffffffffffffffffffffffffffffffffffffff8381831617835250505050612cab565b50505050565b606060008251905060008114156128bd5760405180602001604052806000815250915050612a27565b600060036002836128ce91906148e7565b6128d89190614afc565b60046128e49190614bb8565b905060006020826128f591906148e7565b67ffffffffffffffff81111561290e5761290d6135a6565b5b6040519080825280601f01601f1916602001820160405280156129405781602001600182028036833780820191505090505b5090506000604051806060016040528060408152602001614fb7604091399050600181016020830160005b868110156129e45760038101905062ffffff818a015116603f8160121c168401518060081b905060ff603f83600c1c1686015116810190508060081b905060ff603f8360061c1686015116810190508060081b905060ff603f831686015116810190508060e01b9050808452600484019350505061296b565b5060038606600181146129fe5760028114612a0e57612a19565b613d3d60f01b6002830352612a19565b603d60f81b60018303525b508484525050819450505050505b919050565b612ac281604051602401612a40919061334f565b6040516020818303038152906040527f41304fac000000000000000000000000000000000000000000000000000000007bffffffffffffffffffffffffffffffffffffffffffffffffffffffff19166020820180517bffffffffffffffffffffffffffffffffffffffffffffffffffffffff8381831617835250505050612cab565b50565b612adf828260405180602001604052806000815250612e66565b5050565b612aec82611dd5565b612b2b576040517f08c379a0000000000000000000000000000000000000000000000000000000008152600401612b2290614c84565b60405180910390fd5b80600660008481526020019081526020016000209080519060200190612b52929190613144565b505050565b6001816000016000828254019250508190555050565b612c07838383604051602401612b8593929190614ca4565b6040516020818303038152906040527fe0e9ad4f000000000000000000000000000000000000000000000000000000007bffffffffffffffffffffffffffffffffffffffffffffffffffffffff19166020820180517bffffffffffffffffffffffffffffffffffffffffffffffffffffffff8381831617835250505050612cab565b505050565b612ca6838383604051602401612c2493929190614ce9565b6040516020818303038152906040527fa3f5c739000000000000000000000000000000000000000000000000000000007bffffffffffffffffffffffffffffffffffffffffffffffffffffffff19166020820180517bffffffffffffffffffffffffffffffffffffffffffffffffffffffff8381831617835250505050612cab565b505050565b60008151905060006a636f6e736f6c652e6c6f679050602083016000808483855afa5050505050565b505050565b505050565b6000612cff8473ffffffffffffffffffffffffffffffffffffffff16612ec1565b15612e59578373ffffffffffffffffffffffffffffffffffffffff1663150b7a02612d28611e41565b8786866040518563ffffffff1660e01b8152600401612d4a9493929190614d83565b6020604051808303816000875af1925050508015612d8657506040513d601f19601f82011682018060405250810190612d839190614de4565b60015b612e09573d8060008114612db6576040519150601f19603f3d011682016040523d82523d6000602084013e612dbb565b606091505b50600081511415612e01576040517f08c379a0000000000000000000000000000000000000000000000000000000008152600401612df890614a1b565b60405180910390fd5b805181602001fd5b63150b7a0260e01b7bffffffffffffffffffffffffffffffffffffffffffffffffffffffff1916817bffffffffffffffffffffffffffffffffffffffffffffffffffffffff191614915050612e5e565b600190505b949350505050565b612e708383612ee4565b612e7d6000848484612cde565b612ebc576040517f08c379a0000000000000000000000000000000000000000000000000000000008152600401612eb390614a1b565b60405180910390fd5b505050565b6000808273ffffffffffffffffffffffffffffffffffffffff163b119050919050565b600073ffffffffffffffffffffffffffffffffffffffff168273ffffffffffffffffffffffffffffffffffffffff161415612f54576040517f08c379a0000000000000000000000000000000000000000000000000000000008152600401612f4b90614e5d565b60405180910390fd5b612f5d81611dd5565b15612f9d576040517f08c379a0000000000000000000000000000000000000000000000000000000008152600401612f9490614ec9565b60405180910390fd5b612fa960008383612cd4565b6001600360008473ffffffffffffffffffffffffffffffffffffffff1673ffffffffffffffffffffffffffffffffffffffff1681526020019081526020016000206000828254612ff991906148e7565b92505081905550816002600083815260200190815260200160002060006101000a81548173ffffffffffffffffffffffffffffffffffffffff021916908373ffffffffffffffffffffffffffffffffffffffff160217905550808273ffffffffffffffffffffffffffffffffffffffff16600073ffffffffffffffffffffffffffffffffffffffff167fddf252ad1be2c89b69c2b068fc378daa952ba7f163c4a11628f55a4df523b3ef60405160405180910390a46130ba60008383612cd9565b5050565b8280546130ca90613b5b565b90600052602060002090601f0160209004810192826130ec5760008555613133565b82601f1061310557803560ff1916838001178555613133565b82800160010185558215613133579182015b82811115613132578235825591602001919060010190613117565b5b50905061314091906131ca565b5090565b82805461315090613b5b565b90600052602060002090601f01602090048101928261317257600085556131b9565b82601f1061318b57805160ff19168380011785556131b9565b828001600101855582156131b9579182015b828111156131b857825182559160200191906001019061319d565b5b5090506131c691906131ca565b5090565b5b808211156131e35760008160009055506001016131cb565b5090565b6000604051905090565b600080fd5b600080fd5b60007fffffffff0000000000000000000000000000000000000000000000000000000082169050919050565b613230816131fb565b811461323b57600080fd5b50565b60008135905061324d81613227565b92915050565b600060208284031215613269576132686131f1565b5b60006132778482850161323e565b91505092915050565b60008115159050919050565b61329581613280565b82525050565b60006020820190506132b0600083018461328c565b92915050565b600081519050919050565b600082825260208201905092915050565b60005b838110156132f05780820151818401526020810190506132d5565b838111156132ff576000848401525b50505050565b6000601f19601f8301169050919050565b6000613321826132b6565b61332b81856132c1565b935061333b8185602086016132d2565b61334481613305565b840191505092915050565b600060208201905081810360008301526133698184613316565b905092915050565b6000819050919050565b61338481613371565b811461338f57600080fd5b50565b6000813590506133a18161337b565b92915050565b6000602082840312156133bd576133bc6131f1565b5b60006133cb84828501613392565b91505092915050565b600073ffffffffffffffffffffffffffffffffffffffff82169050919050565b60006133ff826133d4565b9050919050565b61340f816133f4565b82525050565b600060208201905061342a6000830184613406565b92915050565b613439816133f4565b811461344457600080fd5b50565b60008135905061345681613430565b92915050565b60008060408385031215613473576134726131f1565b5b600061348185828601613447565b925050602061349285828601613392565b9150509250929050565b600080fd5b600080fd5b600080fd5b60008083601f8401126134c1576134c061349c565b5b8235905067ffffffffffffffff8111156134de576134dd6134a1565b5b6020830191508360018202830111156134fa576134f96134a6565b5b9250929050565b60008060208385031215613518576135176131f1565b5b600083013567ffffffffffffffff811115613536576135356131f6565b5b613542858286016134ab565b92509250509250929050565b600080600060608486031215613567576135666131f1565b5b600061357586828701613447565b935050602061358686828701613447565b925050604061359786828701613392565b9150509250925092565b600080fd5b7f4e487b7100000000000000000000000000000000000000000000000000000000600052604160045260246000fd5b6135de82613305565b810181811067ffffffffffffffff821117156135fd576135fc6135a6565b5b80604052505050565b60006136106131e7565b905061361c82826135d5565b919050565b600067ffffffffffffffff82111561363c5761363b6135a6565b5b61364582613305565b9050602081019050919050565b82818337600083830152505050565b600061367461366f84613621565b613606565b9050828152602081018484840111156136905761368f6135a1565b5b61369b848285613652565b509392505050565b600082601f8301126136b8576136b761349c565b5b81356136c8848260208601613661565b91505092915050565b6000602082840312156136e7576136e66131f1565b5b600082013567ffffffffffffffff811115613705576137046131f6565b5b613711848285016136a3565b91505092915050565b6000602082840312156137305761372f6131f1565b5b600061373e84828501613447565b91505092915050565b61375081613371565b82525050565b600060208201905061376b6000830184613747565b92915050565b600061377c826133d4565b9050919050565b61378c81613771565b82525050565b60006020820190506137a76000830184613783565b92915050565b6137b681613280565b81146137c157600080fd5b50565b6000813590506137d3816137ad565b92915050565b600080604083850312156137f0576137ef6131f1565b5b60006137fe85828601613447565b925050602061380f858286016137c4565b9150509250929050565b600067ffffffffffffffff821115613834576138336135a6565b5b61383d82613305565b9050602081019050919050565b600061385d61385884613819565b613606565b905082815260208101848484011115613879576138786135a1565b5b613884848285613652565b509392505050565b600082601f8301126138a1576138a061349c565b5b81356138b184826020860161384a565b91505092915050565b600080600080608085870312156138d4576138d36131f1565b5b60006138e287828801613447565b94505060206138f387828801613447565b935050604061390487828801613392565b925050606085013567ffffffffffffffff811115613925576139246131f6565b5b6139318782880161388c565b91505092959194509250565b60008060008060408587031215613957576139566131f1565b5b600085013567ffffffffffffffff811115613975576139746131f6565b5b613981878288016134ab565b9450945050602085013567ffffffffffffffff8111156139a4576139a36131f6565b5b6139b0878288016134ab565b925092505092959194509250565b600080604083850312156139d5576139d46131f1565b5b60006139e385828601613447565b92505060206139f485828601613447565b9150509250929050565b600081519050919050565b600082825260208201905092915050565b6000819050602082019050919050565b600082825260208201905092915050565b6000613a46826132b6565b613a508185613a2a565b9350613a608185602086016132d2565b613a6981613305565b840191505092915050565b6000613a808383613a3b565b905092915050565b6000602082019050919050565b6000613aa0826139fe565b613aaa8185613a09565b935083602082028501613abc85613a1a565b8060005b85811015613af85784840389528151613ad98582613a74565b9450613ae483613a88565b925060208a01995050600181019050613ac0565b50829750879550505050505092915050565b60006020820190508181036000830152613b248184613a95565b905092915050565b7f4e487b7100000000000000000000000000000000000000000000000000000000600052602260045260246000fd5b60006002820490506001821680613b7357607f821691505b60208210811415613b8757613b86613b2c565b5b50919050565b7f4552433732313a20617070726f76656420717565727920666f72206e6f6e657860008201527f697374656e7420746f6b656e0000000000000000000000000000000000000000602082015250565b6000613be9602c836132c1565b9150613bf482613b8d565b604082019050919050565b60006020820190508181036000830152613c1881613bdc565b9050919050565b7f4552433732313a20617070726f76616c20746f2063757272656e74206f776e6560008201527f7200000000000000000000000000000000000000000000000000000000000000602082015250565b6000613c7b6021836132c1565b9150613c8682613c1f565b604082019050919050565b60006020820190508181036000830152613caa81613c6e565b9050919050565b7f4552433732313a20617070726f76652063616c6c6572206973206e6f74206f7760008201527f6e6572206e6f7220617070726f76656420666f7220616c6c0000000000000000602082015250565b6000613d0d6038836132c1565b9150613d1882613cb1565b604082019050919050565b60006020820190508181036000830152613d3c81613d00565b9050919050565b600081905092915050565b6000613d5a8385613d43565b9350613d67838584613652565b82840190509392505050565b6000613d80828486613d4e565b91508190509392505050565b7f4552433732313a207472616e736665722063616c6c6572206973206e6f74206f60008201527f776e6572206e6f7220617070726f766564000000000000000000000000000000602082015250565b6000613de86031836132c1565b9150613df382613d8c565b604082019050919050565b60006020820190508181036000830152613e1781613ddb565b9050919050565b600081905092915050565b50565b6000613e39600083613e1e565b9150613e4482613e29565b600082019050919050565b6000613e5a82613e2c565b9150819050919050565b7f4661696c656420746f2077697468647261772066756e64730000000000000000600082015250565b6000613e9a6018836132c1565b9150613ea582613e64565b602082019050919050565b60006020820190508181036000830152613ec981613e8d565b9050919050565b7f4552433732313a206f776e657220717565727920666f72206e6f6e657869737460008201527f656e7420746f6b656e0000000000000000000000000000000000000000000000602082015250565b6000613f2c6029836132c1565b9150613f3782613ed0565b604082019050919050565b60006020820190508181036000830152613f5b81613f1f565b9050919050565b7f4552433732313a2062616c616e636520717565727920666f7220746865207a6560008201527f726f206164647265737300000000000000000000000000000000000000000000602082015250565b6000613fbe602a836132c1565b9150613fc982613f62565b604082019050919050565b60006020820190508181036000830152613fed81613fb1565b9050919050565b7f796f7520617265206e6f7420746865206f776e65720000000000000000000000600082015250565b600061402a6015836132c1565b915061403582613ff4565b602082019050919050565b600060208201905081810360008301526140598161401d565b9050919050565b7f45524337323155524953746f726167653a2055524920717565727920666f722060008201527f6e6f6e6578697374656e7420746f6b656e000000000000000000000000000000602082015250565b60006140bc6031836132c1565b91506140c782614060565b604082019050919050565b600060208201905081810360008301526140eb816140af565b9050919050565b60006140fd826132b6565b6141078185613d43565b93506141178185602086016132d2565b80840191505092915050565b600061412f82856140f2565b915061413b82846140f2565b91508190509392505050565b7f536f7272792c20746861742069732074616b656e202c63686f6f736520616e6f60008201527f7468657200000000000000000000000000000000000000000000000000000000602082015250565b60006141a36024836132c1565b91506141ae82614147565b604082019050919050565b600060208201905081810360008301526141d281614196565b9050919050565b60006141e583856132c1565b93506141f2838584613652565b6141fb83613305565b840190509392505050565b600060208201905081810360008301526142218184866141d9565b90509392505050565b7f6e6f7420656e6f7567682062616c616e63650000000000000000000000000000600082015250565b60006142606012836132c1565b915061426b8261422a565b602082019050919050565b6000602082019050818103600083015261428f81614253565b9050919050565b7f2e00000000000000000000000000000000000000000000000000000000000000600082015250565b60006142cc600183613d43565b91506142d782614296565b600182019050919050565b60008190508160005260206000209050919050565b6000815461430481613b5b565b61430e8186613d43565b94506001821660008114614329576001811461433a5761436d565b60ff1983168652818601935061436d565b614343856142e2565b60005b8381101561436557815481890152600182019150602081019050614346565b838801955050505b50505092915050565b6000614383828587613d4e565b915061438e826142bf565b915061439a82846142f7565b9150819050949350505050565b60006143b382866142f7565b91506143bf82856140f2565b91506143cb82846142f7565b9150819050949350505050565b7f7b226e616d65223a202200000000000000000000000000000000000000000000600082015250565b600061440e600a83613d43565b9150614419826143d8565b600a82019050919050565b7f222c20226465736372697074696f6e223a224120646f6d61696e206f6e20746860008201527f6520486f646c204e616d652053657276696365222c2022696d616765223a226460208201527f6174613a696d6167652f7376672b786d6c3b6261736536342c00000000000000604082015250565b60006144a6605983613d43565b91506144b182614424565b605982019050919050565b7f222c226c656e677468223a220000000000000000000000000000000000000000600082015250565b60006144f2600c83613d43565b91506144fd826144bc565b600c82019050919050565b7f227d000000000000000000000000000000000000000000000000000000000000600082015250565b600061453e600283613d43565b915061454982614508565b600282019050919050565b600061455f82614401565b915061456b82866140f2565b915061457682614499565b915061458282856140f2565b915061458d826144e5565b915061459982846140f2565b91506145a482614531565b9150819050949350505050565b7f646174613a6170706c69636174696f6e2f6a736f6e3b6261736536342c000000600082015250565b60006145e7601d83613d43565b91506145f2826145b1565b601d82019050919050565b6000614608826145da565b915061461482846140f2565b915081905092915050565b7f4e487b7100000000000000000000000000000000000000000000000000000000600052603260045260246000fd5b7f4e487b7100000000000000000000000000000000000000000000000000000000600052601160045260246000fd5b600061468882613371565b91507fffffffffffffffffffffffffffffffffffffffffffffffffffffffffffffffff8214156146bb576146ba61464e565b5b600182019050919050565b600060408201905081810360008301526146e08185613316565b905081810360208301526146f48184613316565b90509392505050565b7f4552433732313a206f70657261746f7220717565727920666f72206e6f6e657860008201527f697374656e7420746f6b656e0000000000000000000000000000000000000000602082015250565b6000614759602c836132c1565b9150614764826146fd565b604082019050919050565b600060208201905081810360008301526147888161474c565b9050919050565b7f4552433732313a207472616e736665722066726f6d20696e636f72726563742060008201527f6f776e6572000000000000000000000000000000000000000000000000000000602082015250565b60006147eb6025836132c1565b91506147f68261478f565b604082019050919050565b6000602082019050818103600083015261481a816147de565b9050919050565b7f4552433732313a207472616e7366657220746f20746865207a65726f2061646460008201527f7265737300000000000000000000000000000000000000000000000000000000602082015250565b600061487d6024836132c1565b915061488882614821565b604082019050919050565b600060208201905081810360008301526148ac81614870565b9050919050565b60006148be82613371565b91506148c983613371565b9250828210156148dc576148db61464e565b5b828203905092915050565b60006148f282613371565b91506148fd83613371565b9250827fffffffffffffffffffffffffffffffffffffffffffffffffffffffffffffffff038211156149325761493161464e565b5b828201905092915050565b7f4552433732313a20617070726f766520746f2063616c6c657200000000000000600082015250565b60006149736019836132c1565b915061497e8261493d565b602082019050919050565b600060208201905081810360008301526149a281614966565b9050919050565b7f4552433732313a207472616e7366657220746f206e6f6e20455243373231526560008201527f63656976657220696d706c656d656e7465720000000000000000000000000000602082015250565b6000614a056032836132c1565b9150614a10826149a9565b604082019050919050565b60006020820190508181036000830152614a34816149f8565b9050919050565b7f4552433732314d657461646174613a2055524920717565727920666f72206e6f60008201527f6e6578697374656e7420746f6b656e0000000000000000000000000000000000602082015250565b6000614a97602f836132c1565b9150614aa282614a3b565b604082019050919050565b60006020820190508181036000830152614ac681614a8a565b9050919050565b7f4e487b7100000000000000000000000000000000000000000000000000000000600052601260045260246000fd5b6000614b0782613371565b9150614b1283613371565b925082614b2257614b21614acd565b5b828204905092915050565b6000614b3882613371565b9150614b4383613371565b925082614b5357614b52614acd565b5b828206905092915050565b60006080820190508181036000830152614b788187613316565b90508181036020830152614b8c8186613316565b90508181036040830152614ba08185613316565b9050614baf6060830184613747565b95945050505050565b6000614bc382613371565b9150614bce83613371565b9250817fffffffffffffffffffffffffffffffffffffffffffffffffffffffffffffffff0483118215151615614c0757614c0661464e565b5b828202905092915050565b7f45524337323155524953746f726167653a2055524920736574206f66206e6f6e60008201527f6578697374656e7420746f6b656e000000000000000000000000000000000000602082015250565b6000614c6e602e836132c1565b9150614c7982614c12565b604082019050919050565b60006020820190508181036000830152614c9d81614c61565b9050919050565b60006060820190508181036000830152614cbe8186613316565b9050614ccd6020830185613406565b8181036040830152614cdf8184613316565b9050949350505050565b60006060820190508181036000830152614d038186613316565b9050614d126020830185613747565b8181036040830152614d248184613316565b9050949350505050565b600081519050919050565b600082825260208201905092915050565b6000614d5582614d2e565b614d5f8185614d39565b9350614d6f8185602086016132d2565b614d7881613305565b840191505092915050565b6000608082019050614d986000830187613406565b614da56020830186613406565b614db26040830185613747565b8181036060830152614dc48184614d4a565b905095945050505050565b600081519050614dde81613227565b92915050565b600060208284031215614dfa57614df96131f1565b5b6000614e0884828501614dcf565b91505092915050565b7f4552433732313a206d696e7420746f20746865207a65726f2061646472657373600082015250565b6000614e476020836132c1565b9150614e5282614e11565b602082019050919050565b60006020820190508181036000830152614e7681614e3a565b9050919050565b7f4552433732313a20746f6b656e20616c7265616479206d696e74656400000000600082015250565b6000614eb3601c836132c1565b9150614ebe82614e7d565b602082019050919050565b60006020820190508181036000830152614ee281614ea6565b905091905056fe47657474696e6720616c6c206e616d65732066726f6d2074686520646f6d61696e20636f6e74726163740a2d2d2d2d2d2d2d2d2d2d2d2d2d2d2d2d2d2d2d2d2d2d2d2d2d2d2d2d2d2d2d2d2d2d2d2d2d2d2d2d2d2d2d2d2d2d2d2d2d2d2d2d2d2d2d2d5265676973746572696e672025732e2573206f6e2074686520636f6e7472616374207769746820746f6b656e49442025642d2d2d2d2d2d2d2d2d2d2d2d2d2d2d2d2d2d2d2d2d2d2d2d2d2d2d2d2d2d2d2d2d2d2d2d2d2d2d2d2d2d2d2d2d2d2d2d2d2d2d2d2d2d2d2d0a4142434445464748494a4b4c4d4e4f505152535455565758595a6162636465666768696a6b6c6d6e6f707172737475767778797a303132333435363738392b2f25732068617320726567697374657264206120646f6d61696e2063616c6c656420257321a26469706673582212201c4fe520679d898d7440f8d1017c329b114e07efdff0588acd172e7fb2d5d94d64736f6c634300080a00333c73766720786d6c6e733d22687474703a2f2f7777772e77332e6f72672f323030302f737667222077696474683d2232373022206865696768743d22323730222066696c6c3d226e6f6e65223e3c706174682066696c6c3d2275726c282342292220643d224d302030683237307632373048307a222f3e3c646566733e3c66696c7465722069643d22412220636f6c6f722d696e746572706f6c6174696f6e2d66696c746572733d2273524742222066696c746572556e6974733d227573657253706163654f6e55736522206865696768743d22323730222077696474683d22323730223e3c666544726f70536861646f772064783d2230222064793d22312220737464446576696174696f6e3d22322220666c6f6f642d6f7061636974793d222e323235222077696474683d223230302522206865696768743d2232303025222f3e3c2f66696c7465723e3c2f646566733e3c7061746820643d224d37322e3836332034322e393439632d2e3636382d2e3338372d312e3432362d2e35392d322e3139372d2e3539732d312e3532392e3230342d322e3139372e35396c2d31302e30383120362e3033322d362e383520332e3933342d31302e30383120362e303332632d2e3636382e3338372d312e3432362e35392d322e3139372e3539732d312e3532392d2e3230342d322e3139372d2e35396c2d382e3031332d342e37323161342e353220342e35322030203020312d312e3538392d312e363136632d2e3338342d2e3636352d2e3539342d312e3431382d2e3630382d322e313837762d392e3331632d2e3031332d2e3737352e3138352d312e3533382e3537322d322e32303861342e323520342e323520302030203120312e3632352d312e3539356c372e3838342d342e3539632e3636382d2e33383720312e3432362d2e353920322e3139372d2e353973312e3532392e32303420322e3139372e35396c372e38383420342e353961342e353220342e353220302030203120312e35383920312e363136632e3338342e3636352e35393420312e3431382e36303820322e31383776362e3033326c362e38352d342e303635762d362e303332632e3031332d2e3737352d2e3138352d312e3533382d2e3537322d322e32303861342e323520342e32352030203020302d312e3632352d312e3539354c34312e3435362032342e3539632d2e3636382d2e3338372d312e3432362d2e35392d322e3139372d2e3539732d312e3532392e3230342d322e3139372e35396c2d31342e38363420382e36353561342e323520342e32352030203020302d312e36323520312e353935632d2e3338372e36372d2e35383520312e3433342d2e35373220322e3230387631372e343431632d2e3031332e3737352e31383520312e3533382e35373220322e32303861342e323520342e323520302030203020312e36323520312e3539356c31342e38363420382e363535632e3636382e33383720312e3432362e353920322e3139372e353973312e3532392d2e32303420322e3139372d2e35396c31302e3038312d352e39303120362e38352d342e3036352031302e3038312d352e393031632e3636382d2e33383720312e3432362d2e353920322e3139372d2e353973312e3532392e32303420322e3139372e35396c372e38383420342e353961342e353220342e353220302030203120312e35383920312e363136632e3338342e3636352e35393420312e3431382e36303820322e31383776392e333131632e3031332e3737352d2e31383520312e3533382d2e35373220322e32303861342e323520342e32352030203020312d312e36323520312e3539356c2d372e38383420342e373231632d2e3636382e3338372d312e3432362e35392d322e3139372e3539732d312e3532392d2e3230342d322e3139372d2e35396c2d372e3838342d342e353961342e353220342e35322030203020312d312e3538392d312e363136632d2e3338352d2e3636352d2e3539342d312e3431382d2e3630382d322e313837762d362e3033326c2d362e383520342e30363576362e303332632d2e3031332e3737352e31383520312e3533382e35373220322e32303861342e323520342e323520302030203020312e36323520312e3539356c31342e38363420382e363535632e3636382e33383720312e3432362e353920322e3139372e353973312e3532392d2e32303420322e3139372d2e35396c31342e3836342d382e363535632e3635372d2e33393420312e3230342d2e393520312e3538392d312e363136732e3539342d312e3431382e3630392d322e3138375635352e353338632e3031332d2e3737352d2e3138352d312e3533382d2e3537322d322e32303861342e323520342e32352030203020302d312e3632352d312e3539356c2d31342e3939332d382e3738367a222066696c6c3d2223666666222f3e3c646566733e3c6c696e6561724772616469656e742069643d2242222078313d2230222079313d2230222078323d22323730222079323d2232373022206772616469656e74556e6974733d227573657253706163654f6e557365223e3c73746f702073746f702d636f6c6f723d2223636235656565222f3e3c73746f70206f66667365743d2231222073746f702d636f6c6f723d22236362303865666665222073746f702d6f7061636974793d222e3939222f3e3c2f6c696e6561724772616469656e743e3c2f646566733e3c7465787420783d2233322e352220793d223233312220666f6e742d73697a653d223237222066696c6c3d2223666666222066696c7465723d2275726c282341292220666f6e742d66616d696c793d22506c7573204a616b617274612053616e732c44656a6156752053616e732c4e6f746f20436f6c6f7220456d6f6a692c4170706c6520436f6c6f7220456d6f6a692c73616e732d73657269662220666f6e742d7765696768743d22626f6c64223e",
  "linkReferences": {},
  "deployedLinkReferences": {}
}